{
  "address": "0x839CDbe4cA8095675243AB86AAa66aD717C4e421",
  "abi": [
    {
      "inputs": [
        {
          "internalType": "address",
          "name": "priceFeedAddress",
          "type": "address"
        }
      ],
      "stateMutability": "nonpayable",
      "type": "constructor"
    },
    {
      "stateMutability": "payable",
      "type": "fallback"
    },
    {
      "inputs": [],
      "name": "MINIMUM_USD",
      "outputs": [
        {
          "internalType": "uint256",
          "name": "",
          "type": "uint256"
        }
      ],
      "stateMutability": "view",
      "type": "function"
    },
    {
      "inputs": [
        {
          "internalType": "address",
          "name": "",
          "type": "address"
        }
      ],
      "name": "addressToAmountFunded",
      "outputs": [
        {
          "internalType": "uint256",
          "name": "",
          "type": "uint256"
        }
      ],
      "stateMutability": "view",
      "type": "function"
    },
    {
      "inputs": [],
      "name": "fund",
      "outputs": [],
      "stateMutability": "payable",
      "type": "function"
    },
    {
      "inputs": [
        {
          "internalType": "uint256",
          "name": "",
          "type": "uint256"
        }
      ],
      "name": "funders",
      "outputs": [
        {
          "internalType": "address",
          "name": "",
          "type": "address"
        }
      ],
      "stateMutability": "view",
      "type": "function"
    },
    {
      "inputs": [],
      "name": "owner",
      "outputs": [
        {
          "internalType": "address",
          "name": "",
          "type": "address"
        }
      ],
      "stateMutability": "view",
      "type": "function"
    },
    {
      "inputs": [],
      "name": "priceFeed",
      "outputs": [
        {
          "internalType": "contract AggregatorV3Interface",
          "name": "",
          "type": "address"
        }
      ],
      "stateMutability": "view",
      "type": "function"
    },
    {
      "inputs": [],
      "name": "withdraw",
      "outputs": [],
      "stateMutability": "nonpayable",
      "type": "function"
    },
    {
      "stateMutability": "payable",
      "type": "receive"
    }
  ],
  "transactionHash": "0x9d5207d54dbc56836aeed9c685de713f96544948f5819cd9f4d950c53d375178",
  "args": [
    "0x694AA1769357215DE4FAC081bf1f309aDC325306"
  ],
  "numDeployments": 1,
  "solcInputHash": "b9835b8dbbd2d74d81edb80b5fe27753",
  "bytecode": "0x608060405234801561001057600080fd5b5060405162001055380380620010558339818101604052810190610034919061011f565b33600260006101000a81548173ffffffffffffffffffffffffffffffffffffffff021916908373ffffffffffffffffffffffffffffffffffffffff16021790555080600360006101000a81548173ffffffffffffffffffffffffffffffffffffffff021916908373ffffffffffffffffffffffffffffffffffffffff1602179055505061014c565b600080fd5b600073ffffffffffffffffffffffffffffffffffffffff82169050919050565b60006100ec826100c1565b9050919050565b6100fc816100e1565b811461010757600080fd5b50565b600081519050610119816100f3565b92915050565b600060208284031215610135576101346100bc565b5b60006101438482850161010a565b91505092915050565b610ef9806200015c6000396000f3fe6080604052600436106100745760003560e01c8063741bef1a1161004e578063741bef1a1461010c5780638da5cb5b14610137578063b60d428814610162578063dc0d3dff1461016c57610083565b80633ccfd60b1461008d5780633e47d6f3146100a45780636b69a592146100e157610083565b36610083576100816101a9565b005b61008b6101a9565b005b34801561009957600080fd5b506100a26102e4565b005b3480156100b057600080fd5b506100cb60048036038101906100c691906107c5565b61052f565b6040516100d8919061080b565b60405180910390f35b3480156100ed57600080fd5b506100f6610547565b604051610103919061080b565b60405180910390f35b34801561011857600080fd5b50610121610554565b60405161012e9190610885565b60405180910390f35b34801561014357600080fd5b5061014c61057a565b60405161015991906108af565b60405180910390f35b61016a6101a9565b005b34801561017857600080fd5b50610193600480360381019061018e91906108f6565b6105a0565b6040516101a091906108af565b60405180910390f35b6802b5e3af16b18800006101e8600360009054906101000a900473ffffffffffffffffffffffffffffffffffffffff16346105df90919063ffffffff16565b1015610229576040517f08c379a000000000000000000000000000000000000000000000000000000000815260040161022090610980565b60405180910390fd5b6000339080600181540180825580915050600190039060005260206000200160009091909190916101000a81548173ffffffffffffffffffffffffffffffffffffffff021916908373ffffffffffffffffffffffffffffffffffffffff16021790555034600160003373ffffffffffffffffffffffffffffffffffffffff1673ffffffffffffffffffffffffffffffffffffffff16815260200190815260200160002060008282546102db91906109cf565b92505081905550565b600260009054906101000a900473ffffffffffffffffffffffffffffffffffffffff1673ffffffffffffffffffffffffffffffffffffffff163373ffffffffffffffffffffffffffffffffffffffff1614610374576040517f08c379a000000000000000000000000000000000000000000000000000000000815260040161036b90610a71565b60405180910390fd5b60005b60008054905081101561041f57600080828154811061039957610398610a91565b5b9060005260206000200160009054906101000a900473ffffffffffffffffffffffffffffffffffffffff1690506000600160008373ffffffffffffffffffffffffffffffffffffffff1673ffffffffffffffffffffffffffffffffffffffff1681526020019081526020016000208190555050808061041790610ac0565b915050610377565b50600067ffffffffffffffff81111561043b5761043a610b09565b5b6040519080825280602002602001820160405280156104695781602001602082028036833780820191505090505b506000908051906020019061047f9291906106bb565b5060003373ffffffffffffffffffffffffffffffffffffffff16476040516104a690610b69565b60006040518083038185875af1925050503d80600081146104e3576040519150601f19603f3d011682016040523d82523d6000602084013e6104e8565b606091505b505090508061052c576040517f08c379a000000000000000000000000000000000000000000000000000000000815260040161052390610bca565b60405180910390fd5b50565b60016020528060005260406000206000915090505481565b6802b5e3af16b188000081565b600360009054906101000a900473ffffffffffffffffffffffffffffffffffffffff1681565b600260009054906101000a900473ffffffffffffffffffffffffffffffffffffffff1681565b600081815481106105b057600080fd5b906000526020600020016000915054906101000a900473ffffffffffffffffffffffffffffffffffffffff1681565b6000806105eb8361061b565b90506000670de0b6b3a764000085836106049190610bea565b61060e9190610c73565b9050809250505092915050565b6000808273ffffffffffffffffffffffffffffffffffffffff1663feaf968c6040518163ffffffff1660e01b815260040160a06040518083038186803b15801561066457600080fd5b505afa158015610678573d6000803e3d6000fd5b505050506040513d601f19601f8201168201806040525081019061069c9190610d31565b5050509150506402540be400816106b39190610dac565b915050919050565b828054828255906000526020600020908101928215610734579160200282015b828111156107335782518260006101000a81548173ffffffffffffffffffffffffffffffffffffffff021916908373ffffffffffffffffffffffffffffffffffffffff160217905550916020019190600101906106db565b5b5090506107419190610745565b5090565b5b8082111561075e576000816000905550600101610746565b5090565b600080fd5b600073ffffffffffffffffffffffffffffffffffffffff82169050919050565b600061079282610767565b9050919050565b6107a281610787565b81146107ad57600080fd5b50565b6000813590506107bf81610799565b92915050565b6000602082840312156107db576107da610762565b5b60006107e9848285016107b0565b91505092915050565b6000819050919050565b610805816107f2565b82525050565b600060208201905061082060008301846107fc565b92915050565b6000819050919050565b600061084b61084661084184610767565b610826565b610767565b9050919050565b600061085d82610830565b9050919050565b600061086f82610852565b9050919050565b61087f81610864565b82525050565b600060208201905061089a6000830184610876565b92915050565b6108a981610787565b82525050565b60006020820190506108c460008301846108a0565b92915050565b6108d3816107f2565b81146108de57600080fd5b50565b6000813590506108f0816108ca565b92915050565b60006020828403121561090c5761090b610762565b5b600061091a848285016108e1565b91505092915050565b600082825260208201905092915050565b7f4469646e27742073656e6420656e6f7567680000000000000000000000000000600082015250565b600061096a601283610923565b915061097582610934565b602082019050919050565b600060208201905081810360008301526109998161095d565b9050919050565b7f4e487b7100000000000000000000000000000000000000000000000000000000600052601160045260246000fd5b60006109da826107f2565b91506109e5836107f2565b9250827fffffffffffffffffffffffffffffffffffffffffffffffffffffffffffffffff03821115610a1a57610a196109a0565b5b828201905092915050565b7f53656e646572206973206e6f7420746865206f776e6572210000000000000000600082015250565b6000610a5b601883610923565b9150610a6682610a25565b602082019050919050565b60006020820190508181036000830152610a8a81610a4e565b9050919050565b7f4e487b7100000000000000000000000000000000000000000000000000000000600052603260045260246000fd5b6000610acb826107f2565b91507fffffffffffffffffffffffffffffffffffffffffffffffffffffffffffffffff821415610afe57610afd6109a0565b5b600182019050919050565b7f4e487b7100000000000000000000000000000000000000000000000000000000600052604160045260246000fd5b600081905092915050565b50565b6000610b53600083610b38565b9150610b5e82610b43565b600082019050919050565b6000610b7482610b46565b9150819050919050565b7f43616c6c206661696c6564000000000000000000000000000000000000000000600082015250565b6000610bb4600b83610923565b9150610bbf82610b7e565b602082019050919050565b60006020820190508181036000830152610be381610ba7565b9050919050565b6000610bf5826107f2565b9150610c00836107f2565b9250817fffffffffffffffffffffffffffffffffffffffffffffffffffffffffffffffff0483118215151615610c3957610c386109a0565b5b828202905092915050565b7f4e487b7100000000000000000000000000000000000000000000000000000000600052601260045260246000fd5b6000610c7e826107f2565b9150610c89836107f2565b925082610c9957610c98610c44565b5b828204905092915050565b600069ffffffffffffffffffff82169050919050565b610cc381610ca4565b8114610cce57600080fd5b50565b600081519050610ce081610cba565b92915050565b6000819050919050565b610cf981610ce6565b8114610d0457600080fd5b50565b600081519050610d1681610cf0565b92915050565b600081519050610d2b816108ca565b92915050565b600080600080600060a08688031215610d4d57610d4c610762565b5b6000610d5b88828901610cd1565b9550506020610d6c88828901610d07565b9450506040610d7d88828901610d1c565b9350506060610d8e88828901610d1c565b9250506080610d9f88828901610cd1565b9150509295509295909350565b6000610db782610ce6565b9150610dc283610ce6565b9250827f7fffffffffffffffffffffffffffffffffffffffffffffffffffffffffffffff0482116000841360008413161615610e0157610e006109a0565b5b817f80000000000000000000000000000000000000000000000000000000000000000583126000841260008413161615610e3e57610e3d6109a0565b5b827f80000000000000000000000000000000000000000000000000000000000000000582126000841360008412161615610e7b57610e7a6109a0565b5b827f7fffffffffffffffffffffffffffffffffffffffffffffffffffffffffffffff0582126000841260008412161615610eb857610eb76109a0565b5b82820290509291505056fea2646970667358221220b5b5518f25a70aab9715586e4e9bb2010172a502b16521c98b0371c41e7bf55364736f6c63430008080033",
  "devdoc": {
    "kind": "dev",
    "methods": {},
    "version": 1
  },
  "userdoc": {
    "kind": "user",
    "methods": {},
    "version": 1
  },
  "storageLayout": {
    "storage": [
      {
        "astId": 59,
        "contract": "contracts/FundMe.sol:FundMe",
        "label": "funders",
        "offset": 0,
        "slot": "0",
        "type": "t_array(t_address)dyn_storage"
      },
      {
        "astId": 63,
        "contract": "contracts/FundMe.sol:FundMe",
        "label": "addressToAmountFunded",
        "offset": 0,
        "slot": "1",
        "type": "t_mapping(t_address,t_uint256)"
      },
      {
        "astId": 65,
        "contract": "contracts/FundMe.sol:FundMe",
        "label": "owner",
        "offset": 0,
        "slot": "2",
        "type": "t_address"
      },
      {
        "astId": 68,
        "contract": "contracts/FundMe.sol:FundMe",
        "label": "priceFeed",
        "offset": 0,
        "slot": "3",
        "type": "t_contract(AggregatorV3Interface)45"
      }
    ],
    "types": {
      "t_address": {
        "encoding": "inplace",
        "label": "address",
        "numberOfBytes": "20"
      },
      "t_array(t_address)dyn_storage": {
        "base": "t_address",
        "encoding": "dynamic_array",
        "label": "address[]",
        "numberOfBytes": "32"
      },
      "t_contract(AggregatorV3Interface)45": {
        "encoding": "inplace",
        "label": "contract AggregatorV3Interface",
        "numberOfBytes": "20"
      },
      "t_mapping(t_address,t_uint256)": {
        "encoding": "mapping",
        "key": "t_address",
        "label": "mapping(address => uint256)",
        "numberOfBytes": "32",
        "value": "t_uint256"
      },
      "t_uint256": {
        "encoding": "inplace",
        "label": "uint256",
        "numberOfBytes": "32"
      }
    }
  }
}